{
  "contractName": "CoinToss",
  "abi": [
    {
      "anonymous": false,
      "inputs": [
        {
          "indexed": false,
          "internalType": "bool",
          "name": "won",
          "type": "bool"
        }
      ],
      "name": "CoinDropped",
      "type": "event"
    },
    {
      "anonymous": false,
      "inputs": [
        {
          "indexed": false,
          "internalType": "string",
          "name": "message",
          "type": "string"
        }
      ],
      "name": "CoinTossed",
      "type": "event"
    },
    {
      "anonymous": false,
      "inputs": [
        {
          "indexed": false,
          "internalType": "uint256",
          "name": "randomNumber",
          "type": "uint256"
        }
      ],
      "name": "GeneratedRandomNumber",
      "type": "event"
    },
    {
      "constant": true,
      "inputs": [],
      "name": "balance",
      "outputs": [
        {
          "internalType": "uint256",
          "name": "",
          "type": "uint256"
        }
      ],
      "payable": false,
      "stateMutability": "view",
      "type": "function"
    },
    {
      "constant": true,
      "inputs": [],
      "name": "owner",
      "outputs": [
        {
          "internalType": "address",
          "name": "",
          "type": "address"
        }
      ],
      "payable": false,
      "stateMutability": "view",
      "type": "function"
    },
    {
      "constant": false,
      "inputs": [],
      "name": "testRandom",
      "outputs": [
        {
          "internalType": "bytes32",
          "name": "",
          "type": "bytes32"
        }
      ],
      "payable": false,
      "stateMutability": "nonpayable",
      "type": "function"
    },
    {
      "constant": false,
      "inputs": [],
      "name": "addBalance",
      "outputs": [],
      "payable": true,
      "stateMutability": "payable",
      "type": "function"
    },
    {
      "constant": false,
      "inputs": [
        {
          "internalType": "uint256",
          "name": "side",
          "type": "uint256"
        }
      ],
      "name": "toss",
      "outputs": [],
      "payable": true,
      "stateMutability": "payable",
      "type": "function"
    },
    {
      "constant": false,
      "inputs": [
        {
          "internalType": "bytes32",
          "name": "_queryId",
          "type": "bytes32"
        },
        {
          "internalType": "string",
          "name": "_result",
          "type": "string"
        }
      ],
      "name": "__callback",
      "outputs": [],
      "payable": false,
      "stateMutability": "nonpayable",
      "type": "function"
    },
    {
      "constant": false,
      "inputs": [
        {
          "internalType": "bytes32",
          "name": "_myid",
          "type": "bytes32"
        },
        {
          "internalType": "string",
          "name": "_result",
          "type": "string"
        },
        {
          "internalType": "bytes",
          "name": "_proof",
          "type": "bytes"
        }
      ],
      "name": "__callback",
      "outputs": [],
      "payable": false,
      "stateMutability": "nonpayable",
      "type": "function"
    },
    {
      "constant": true,
      "inputs": [],
      "name": "getFunds",
      "outputs": [
        {
          "internalType": "uint256",
          "name": "",
          "type": "uint256"
        }
      ],
      "payable": false,
      "stateMutability": "view",
      "type": "function"
    },
    {
      "constant": false,
      "inputs": [],
      "name": "withdrawFunds",
      "outputs": [
        {
          "internalType": "uint256",
          "name": "",
          "type": "uint256"
        }
      ],
      "payable": true,
      "stateMutability": "payable",
      "type": "function"
    },
    {
      "constant": false,
      "inputs": [],
      "name": "withdrawAll",
      "outputs": [
        {
          "internalType": "uint256",
          "name": "",
          "type": "uint256"
        }
      ],
      "payable": false,
      "stateMutability": "nonpayable",
      "type": "function"
    }
  ],
  "bytecode": "0x6080604052336000806101000a81548173ffffffffffffffffffffffffffffffffffffffff021916908373ffffffffffffffffffffffffffffffffffffffff160217905550612d5a806100536000396000f3fe6080604052600436106100915760003560e01c80638da5cb5b116100595780638da5cb5b146103455780639f95250c1461039c578063b163cc38146103ca578063b69ef8a8146103d4578063fbddd14b146103ff57610091565b806324600fc31461009657806327dc297e146100b457806338bbfa50146101865780634d9b3735146102ef578063853828b61461031a575b600080fd5b61009e61042a565b6040518082815260200191505060405180910390f35b3480156100c057600080fd5b50610184600480360360408110156100d757600080fd5b8101908080359060200190929190803590602001906401000000008111156100fe57600080fd5b82018360208201111561011057600080fd5b8035906020019184600183028401116401000000008311171561013257600080fd5b91908080601f016020809104026020016040519081016040528093929190818152602001838380828437600081840152601f19601f820116905080830192505050505050509192919290505050610508565b005b34801561019257600080fd5b506102ed600480360360608110156101a957600080fd5b8101908080359060200190929190803590602001906401000000008111156101d057600080fd5b8201836020820111156101e257600080fd5b8035906020019184600183028401116401000000008311171561020457600080fd5b91908080601f016020809104026020016040519081016040528093929190818152602001838380828437600081840152601f19601f8201169050808301925050505050505091929192908035906020019064010000000081111561026757600080fd5b82018360208201111561027957600080fd5b8035906020019184600183028401116401000000008311171561029b57600080fd5b91908080601f016020809104026020016040519081016040528093929190818152602001838380828437600081840152601f19601f820116905080830192505050505050509192919290505050610807565b005b3480156102fb57600080fd5b5061030461082a565b6040518082815260200191505060405180910390f35b34801561032657600080fd5b5061032f610876565b6040518082815260200191505060405180910390f35b34801561035157600080fd5b5061035a61092e565b604051808273ffffffffffffffffffffffffffffffffffffffff1673ffffffffffffffffffffffffffffffffffffffff16815260200191505060405180910390f35b6103c8600480360360208110156103b257600080fd5b8101908080359060200190929190505050610953565b005b6103d2610b97565b005b3480156103e057600080fd5b506103e9610c02565b6040518082815260200191505060405180910390f35b34801561040b57600080fd5b50610414610c08565b6040518082815260200191505060405180910390f35b6000803390506000600760008373ffffffffffffffffffffffffffffffffffffffff1673ffffffffffffffffffffffffffffffffffffffff1681526020019081526020016000205490506000600760008473ffffffffffffffffffffffffffffffffffffffff1673ffffffffffffffffffffffffffffffffffffffff168152602001908152602001600020819055503373ffffffffffffffffffffffffffffffffffffffff166108fc829081150290604051600060405180830381858888f193505050501580156104ff573d6000803e3d6000fd5b50809250505090565b610510610cdf565b73ffffffffffffffffffffffffffffffffffffffff163373ffffffffffffffffffffffffffffffffffffffff161461058b576040517f08c379a0000000000000000000000000000000000000000000000000000000008152600401808060200182810382526000815260200160200191505060405180910390fd5b60006002826040516020018082805190602001908083835b602083106105c657805182526020820191506020810190506020830392506105a3565b6001836020036101000a0380198251168184511680821785525050505050509050019150506040516020818303038152906040528051906020012060001c8161060b57fe5b06905060006009600085815260200190815260200160002060009054906101000a900473ffffffffffffffffffffffffffffffffffffffff16905061064e612ba0565b600860008373ffffffffffffffffffffffffffffffffffffffff1673ffffffffffffffffffffffffffffffffffffffff1681526020019081526020016000206040518060800160405290816000820160009054906101000a900473ffffffffffffffffffffffffffffffffffffffff1673ffffffffffffffffffffffffffffffffffffffff1673ffffffffffffffffffffffffffffffffffffffff16815260200160018201548152602001600282015481526020016003820160009054906101000a900460ff1615151515815250509050806020015183148160600190151590811515815250508060600151156107ac576002816040015102600760008473ffffffffffffffffffffffffffffffffffffffff1673ffffffffffffffffffffffffffffffffffffffff1681526020019081526020016000206000828254019250508190555080604001516006600082825403925050819055506107c1565b80604001516006600082825401925050819055505b7f10734c0003e024f36cd0d4cc9ec8b7e46f5aec1ae522ad5f3e2022faaf9fd0978160600151604051808215151515815260200191505060405180910390a15050505050565b6000801b600460008060001b815260200190815260200160002081905550505050565b600080339050600760008273ffffffffffffffffffffffffffffffffffffffff1673ffffffffffffffffffffffffffffffffffffffff1681526020019081526020016000205491505090565b60008060009054906101000a900473ffffffffffffffffffffffffffffffffffffffff1673ffffffffffffffffffffffffffffffffffffffff163373ffffffffffffffffffffffffffffffffffffffff16146108d157600080fd5b6000600654905060006006819055503373ffffffffffffffffffffffffffffffffffffffff166108fc829081150290604051600060405180830381858888f19350505050158015610926573d6000803e3d6000fd5b508091505090565b6000809054906101000a900473ffffffffffffffffffffffffffffffffffffffff1681565b6611c37937e080008034101561096857600080fd5b3460065410156109c3576040517f08c379a0000000000000000000000000000000000000000000000000000000008152600401808060200182810382526030815260200180612cf66030913960400191505060405180910390fd5b6000809050600062030d40905060006109de83600184610fff565b9050336009600083815260200190815260200160002060006101000a81548173ffffffffffffffffffffffffffffffffffffffff021916908373ffffffffffffffffffffffffffffffffffffffff160217905550610a3a612ba0565b33816000019073ffffffffffffffffffffffffffffffffffffffff16908173ffffffffffffffffffffffffffffffffffffffff1681525050858160200181815250503481604001818152505080600860003373ffffffffffffffffffffffffffffffffffffffff1673ffffffffffffffffffffffffffffffffffffffff16815260200190815260200160002060008201518160000160006101000a81548173ffffffffffffffffffffffffffffffffffffffff021916908373ffffffffffffffffffffffffffffffffffffffff160217905550602082015181600101556040820151816002015560608201518160030160006101000a81548160ff0219169083151502179055509050507f82f277db8e64575b4a71f7a76b7494f9b9b88e10a19b387609ec2d6031be51b460405180806020018281038252602f815260200180612cc7602f913960400191505060405180910390a1505050505050565b6000809054906101000a900473ffffffffffffffffffffffffffffffffffffffff1673ffffffffffffffffffffffffffffffffffffffff163373ffffffffffffffffffffffffffffffffffffffff1614610bf057600080fd5b34600660008282540192505081905550565b60065481565b60008033604051602001808273ffffffffffffffffffffffffffffffffffffffff1673ffffffffffffffffffffffffffffffffffffffff1660601b8152601401915050604051602081830303815290604052805190602001209050610cd8816040518060400160405280600181526020017f31000000000000000000000000000000000000000000000000000000000000008152506040518060400160405280600481526020017f7465737400000000000000000000000000000000000000000000000000000000815250610807565b8091505090565b60008073ffffffffffffffffffffffffffffffffffffffff16600260009054906101000a900473ffffffffffffffffffffffffffffffffffffffff1673ffffffffffffffffffffffffffffffffffffffff161480610d6757506000610d65600260009054906101000a900473ffffffffffffffffffffffffffffffffffffffff1661159a565b145b15610d7857610d7660006115a5565b505b600260009054906101000a900473ffffffffffffffffffffffffffffffffffffffff1673ffffffffffffffffffffffffffffffffffffffff166338cc48316040518163ffffffff1660e01b8152600401602060405180830381600087803b158015610de257600080fd5b505af1158015610df6573d6000803e3d6000fd5b505050506040513d6020811015610e0c57600080fd5b810190808051906020019092919050505073ffffffffffffffffffffffffffffffffffffffff16600160009054906101000a900473ffffffffffffffffffffffffffffffffffffffff1673ffffffffffffffffffffffffffffffffffffffff1614610f5757600260009054906101000a900473ffffffffffffffffffffffffffffffffffffffff1673ffffffffffffffffffffffffffffffffffffffff166338cc48316040518163ffffffff1660e01b8152600401602060405180830381600087803b158015610edb57600080fd5b505af1158015610eef573d6000803e3d6000fd5b505050506040513d6020811015610f0557600080fd5b8101908080519060200190929190505050600160006101000a81548173ffffffffffffffffffffffffffffffffffffffff021916908373ffffffffffffffffffffffffffffffffffffffff1602179055505b600160009054906101000a900473ffffffffffffffffffffffffffffffffffffffff1673ffffffffffffffffffffffffffffffffffffffff1663c281d19e6040518163ffffffff1660e01b815260040160206040518083038186803b158015610fbf57600080fd5b505afa158015610fd3573d6000803e3d6000fd5b505050506040513d6020811015610fe957600080fd5b8101908080519060200190929190505050905090565b60008083118015611011575060208311155b61101a57600080fd5b600a84029350606060016040519080825280601f01601f1916602001820160405280156110565781602001600182028038833980820191505090505b5090508360f81b8160008151811061106a57fe5b60200101907effffffffffffffffffffffffffffffffffffffffffffffffffffffffffffff1916908160001a905350606060206040519080825280601f01601f1916602001820160405280156110cf5781602001600182028038833980820191505090505b509050606060206040519080825280601f01601f1916602001820160405280156111085781602001600182028038833980820191505090505b50905060006111156115b6565b905060208352424118600143034018602084015260208252806020830152606060206040519080825280601f01601f1916602001820160405280156111695781602001600182028038833980820191505090505b509050886020820152606060086040519080825280601f01601f1916602001820160405280156111a85781602001600182028038833980820191505090505b5090506111bb82601860088460006118d6565b506111c4612be0565b604051806080016040528087815260200188815260200186815260200184815250905060006112296040518060400160405280600681526020017f72616e646f6d0000000000000000000000000000000000000000000000000000815250838c611935565b9050606060086040519080825280601f01601f1916602001820160405280156112615781602001600182028038833980820191505090505b50905060208401517f0100000000000000000000000000000000000000000000000000000000000000810460278301537e01000000000000000000000000000000000000000000000000000000000000810460268301537d010000000000000000000000000000000000000000000000000000000000810460258301537c0100000000000000000000000000000000000000000000000000000000810460248301537b01000000000000000000000000000000000000000000000000000000810460238301537a0100000000000000000000000000000000000000000000000000008104602283015379010000000000000000000000000000000000000000000000000081046021830153780100000000000000000000000000000000000000000000000081046020830153506115878282856001600481106113a057fe5b60200201516002876000600481106113b457fe5b60200201516040518082805190602001908083835b602083106113ec57805182526020820191506020810190506020830392506113c9565b6001836020036101000a038019825116818451168082178552505050505050905001915050602060405180830381855afa15801561142e573d6000803e3d6000fd5b5050506040513d602081101561144357600080fd5b81019080805190602001909291905050508760026004811061146157fe5b60200201516040516020018085805190602001908083835b6020831061149c5780518252602082019150602081019050602083039250611479565b6001836020036101000a03801982511681845116808217855250505050505090500184805190602001908083835b602083106114ed57805182526020820191506020810190506020830392506114ca565b6001836020036101000a03801982511681845116808217855250505050505090500183815260200182805190602001908083835b602083106115445780518252602082019150602081019050602083039250611521565b6001836020036101000a03801982511681845116808217855250505050505090500194505050505060405160208183030381529060405280519060200120611ca4565b8199505050505050505050509392505050565b6000813b9050919050565b60006115af611cc0565b9050919050565b60008073ffffffffffffffffffffffffffffffffffffffff16600260009054906101000a900473ffffffffffffffffffffffffffffffffffffffff1673ffffffffffffffffffffffffffffffffffffffff16148061163e5750600061163c600260009054906101000a900473ffffffffffffffffffffffffffffffffffffffff1661159a565b145b1561164f5761164d60006115a5565b505b600260009054906101000a900473ffffffffffffffffffffffffffffffffffffffff1673ffffffffffffffffffffffffffffffffffffffff166338cc48316040518163ffffffff1660e01b8152600401602060405180830381600087803b1580156116b957600080fd5b505af11580156116cd573d6000803e3d6000fd5b505050506040513d60208110156116e357600080fd5b810190808051906020019092919050505073ffffffffffffffffffffffffffffffffffffffff16600160009054906101000a900473ffffffffffffffffffffffffffffffffffffffff1673ffffffffffffffffffffffffffffffffffffffff161461182e57600260009054906101000a900473ffffffffffffffffffffffffffffffffffffffff1673ffffffffffffffffffffffffffffffffffffffff166338cc48316040518163ffffffff1660e01b8152600401602060405180830381600087803b1580156117b257600080fd5b505af11580156117c6573d6000803e3d6000fd5b505050506040513d60208110156117dc57600080fd5b8101908080519060200190929190505050600160006101000a81548173ffffffffffffffffffffffffffffffffffffffff021916908373ffffffffffffffffffffffffffffffffffffffff1602179055505b600160009054906101000a900473ffffffffffffffffffffffffffffffffffffffff1673ffffffffffffffffffffffffffffffffffffffff1663abaa5f3e6040518163ffffffff1660e01b815260040160206040518083038186803b15801561189657600080fd5b505afa1580156118aa573d6000803e3d6000fd5b505050506040513d60208110156118c057600080fd5b8101908080519060200190929190505050905090565b60606000828501905080845110156118ed57600080fd5b600086602001905060008460200190505b86886020010182101561192657818901518082880152506020820191506020810190506118fe565b85935050505095945050505050565b60008073ffffffffffffffffffffffffffffffffffffffff16600260009054906101000a900473ffffffffffffffffffffffffffffffffffffffff1673ffffffffffffffffffffffffffffffffffffffff1614806119bd575060006119bb600260009054906101000a900473ffffffffffffffffffffffffffffffffffffffff1661159a565b145b156119ce576119cc60006115a5565b505b600260009054906101000a900473ffffffffffffffffffffffffffffffffffffffff1673ffffffffffffffffffffffffffffffffffffffff166338cc48316040518163ffffffff1660e01b8152600401602060405180830381600087803b158015611a3857600080fd5b505af1158015611a4c573d6000803e3d6000fd5b505050506040513d6020811015611a6257600080fd5b810190808051906020019092919050505073ffffffffffffffffffffffffffffffffffffffff16600160009054906101000a900473ffffffffffffffffffffffffffffffffffffffff1673ffffffffffffffffffffffffffffffffffffffff1614611bad57600260009054906101000a900473ffffffffffffffffffffffffffffffffffffffff1673ffffffffffffffffffffffffffffffffffffffff166338cc48316040518163ffffffff1660e01b8152600401602060405180830381600087803b158015611b3157600080fd5b505af1158015611b45573d6000803e3d6000fd5b505050506040513d6020811015611b5b57600080fd5b8101908080519060200190929190505050600160006101000a81548173ffffffffffffffffffffffffffffffffffffffff021916908373ffffffffffffffffffffffffffffffffffffffff1602179055505b60606004604051908082528060200260200182016040528015611be457816020015b6060815260200190600190039081611bcf5790505b50905083600060048110611bf457fe5b602002015181600081518110611c0657fe5b602002602001018190525083600160048110611c1e57fe5b602002015181600181518110611c3057fe5b602002602001018190525083600260048110611c4857fe5b602002015181600281518110611c5a57fe5b602002602001018190525083600360048110611c7257fe5b602002015181600381518110611c8457fe5b6020026020010181905250611c9a858285612217565b9150509392505050565b8060046000848152602001908152602001600020819055505050565b600080611ce0731d3b2638a7cc9f2cb3d298a3da7a90b67e5506ed61159a565b1115611d8257731d3b2638a7cc9f2cb3d298a3da7a90b67e5506ed600260006101000a81548173ffffffffffffffffffffffffffffffffffffffff021916908373ffffffffffffffffffffffffffffffffffffffff160217905550611d796040518060400160405280600b81526020017f6574685f6d61696e6e657400000000000000000000000000000000000000000081525061277d565b60019050612214565b6000611da173c03a2615d5efaf5f49f60b7bb6583eaec212fdf161159a565b1115611e435773c03a2615d5efaf5f49f60b7bb6583eaec212fdf1600260006101000a81548173ffffffffffffffffffffffffffffffffffffffff021916908373ffffffffffffffffffffffffffffffffffffffff160217905550611e3a6040518060400160405280600c81526020017f6574685f726f707374656e33000000000000000000000000000000000000000081525061277d565b60019050612214565b6000611e6273b7a07bcf2ba2f2703b24c0691b5278999c59ac7e61159a565b1115611f045773b7a07bcf2ba2f2703b24c0691b5278999c59ac7e600260006101000a81548173ffffffffffffffffffffffffffffffffffffffff021916908373ffffffffffffffffffffffffffffffffffffffff160217905550611efb6040518060400160405280600981526020017f6574685f6b6f76616e000000000000000000000000000000000000000000000081525061277d565b60019050612214565b6000611f2373146500cfd35b22e4a392fe0adc06de1a1368ed4861159a565b1115611fc55773146500cfd35b22e4a392fe0adc06de1a1368ed48600260006101000a81548173ffffffffffffffffffffffffffffffffffffffff021916908373ffffffffffffffffffffffffffffffffffffffff160217905550611fbc6040518060400160405280600b81526020017f6574685f72696e6b65627900000000000000000000000000000000000000000081525061277d565b60019050612214565b6000611fe473a2998efd205fb9d4b4963afb70778d6354ad3a4161159a565b11156120865773a2998efd205fb9d4b4963afb70778d6354ad3a41600260006101000a81548173ffffffffffffffffffffffffffffffffffffffff021916908373ffffffffffffffffffffffffffffffffffffffff16021790555061207d6040518060400160405280600a81526020017f6574685f676f65726c690000000000000000000000000000000000000000000081525061277d565b60019050612214565b60006120a5736f485c8bf6fc43ea212e93bbf8ce046c7f1cb47561159a565b111561210957736f485c8bf6fc43ea212e93bbf8ce046c7f1cb475600260006101000a81548173ffffffffffffffffffffffffffffffffffffffff021916908373ffffffffffffffffffffffffffffffffffffffff16021790555060019050612214565b60006121287320e12a1f859b3feae5fb2a0a32c18f5a65555bbf61159a565b111561218c577320e12a1f859b3feae5fb2a0a32c18f5a65555bbf600260006101000a81548173ffffffffffffffffffffffffffffffffffffffff021916908373ffffffffffffffffffffffffffffffffffffffff16021790555060019050612214565b60006121ab7351efaf4c8b3c9afbd5ab9f4bbc82784ab6ef8faa61159a565b111561220f577351efaf4c8b3c9afbd5ab9f4bbc82784ab6ef8faa600260006101000a81548173ffffffffffffffffffffffffffffffffffffffff021916908373ffffffffffffffffffffffffffffffffffffffff16021790555060019050612214565b600090505b90565b60008073ffffffffffffffffffffffffffffffffffffffff16600260009054906101000a900473ffffffffffffffffffffffffffffffffffffffff1673ffffffffffffffffffffffffffffffffffffffff16148061229f5750600061229d600260009054906101000a900473ffffffffffffffffffffffffffffffffffffffff1661159a565b145b156122b0576122ae60006115a5565b505b600260009054906101000a900473ffffffffffffffffffffffffffffffffffffffff1673ffffffffffffffffffffffffffffffffffffffff166338cc48316040518163ffffffff1660e01b8152600401602060405180830381600087803b15801561231a57600080fd5b505af115801561232e573d6000803e3d6000fd5b505050506040513d602081101561234457600080fd5b810190808051906020019092919050505073ffffffffffffffffffffffffffffffffffffffff16600160009054906101000a900473ffffffffffffffffffffffffffffffffffffffff1673ffffffffffffffffffffffffffffffffffffffff161461248f57600260009054906101000a900473ffffffffffffffffffffffffffffffffffffffff1673ffffffffffffffffffffffffffffffffffffffff166338cc48316040518163ffffffff1660e01b8152600401602060405180830381600087803b15801561241357600080fd5b505af1158015612427573d6000803e3d6000fd5b505050506040513d602081101561243d57600080fd5b8101908080519060200190929190505050600160006101000a81548173ffffffffffffffffffffffffffffffffffffffff021916908373ffffffffffffffffffffffffffffffffffffffff1602179055505b6000600160009054906101000a900473ffffffffffffffffffffffffffffffffffffffff1673ffffffffffffffffffffffffffffffffffffffff16632ef3accc86856040518363ffffffff1660e01b81526004018080602001838152602001828103825284818151815260200191508051906020019080838360005b8381101561252657808201518184015260208101905061250b565b50505050905090810190601f1680156125535780820380516001836020036101000a031916815260200191505b509350505050602060405180830381600087803b15801561257357600080fd5b505af1158015612587573d6000803e3d6000fd5b505050506040513d602081101561259d57600080fd5b81019080805190602001909291905050509050823a02670de0b6b3a7640000018111156125d0576000801b915050612776565b60606125db85612797565b9050600160009054906101000a900473ffffffffffffffffffffffffffffffffffffffff1673ffffffffffffffffffffffffffffffffffffffff1663c55c1cb68360008985896040518663ffffffff1660e01b8152600401808581526020018060200180602001848152602001838103835286818151815260200191508051906020019080838360005b83811015612680578082015181840152602081019050612665565b50505050905090810190601f1680156126ad5780820380516001836020036101000a031916815260200191505b50838103825285818151815260200191508051906020019080838360005b838110156126e65780820151818401526020810190506126cb565b50505050905090810190601f1680156127135780820380516001836020036101000a031916815260200191505b5096505050505050506020604051808303818588803b15801561273557600080fd5b505af1158015612749573d6000803e3d6000fd5b50505050506040513d602081101561276057600080fd5b8101908080519060200190929190505050925050505b9392505050565b8060039080519060200190612793929190612c07565b5050565b60606127a1612817565b6127a9612c87565b6127b581610400612823565b6127be8161286d565b60008090505b8351811015612800576127f38482815181106127dc57fe5b60200260200101518361287b90919063ffffffff16565b80806001019150506127c4565b5061280a816128a0565b8060000151915050919050565b60405180590338823950565b600081905060006020828161283457fe5b061461284d576020818161284457fe5b06602003810190505b808360200181815250506040518084526000815281810160405250505050565b6128788160046128ae565b50565b61288882600283516128cf565b61289b8183612a0f90919063ffffffff16565b505050565b6128ab8160076128ae565b50565b6128cb601f60058360ff16901b1783612aba90919063ffffffff16565b5050565b601781116128fb576128f68160058460ff16901b60ff161784612aba90919063ffffffff16565b612a0a565b60ff811161293c57612920601860058460ff16901b1784612aba90919063ffffffff16565b61293681600185612afa9092919063ffffffff16565b50612a09565b61ffff811161297e57612962601960058460ff16901b1784612aba90919063ffffffff16565b61297881600285612afa9092919063ffffffff16565b50612a08565b63ffffffff81116129c2576129a6601a60058460ff16901b1784612aba90919063ffffffff16565b6129bc81600485612afa9092919063ffffffff16565b50612a07565b67ffffffffffffffff8111612a06576129ee601b60058460ff16901b1784612aba90919063ffffffff16565b612a0481600885612afa9092919063ffffffff16565b505b5b5b5b5b505050565b612a17612c87565b82602001518360000151518351011115612a4757612a46836002612a4086602001518651612b61565b02612b7d565b5b60008060008451905085518051602081830101945086518101825260208701935050505b60208110612a8e5781518352602083019250602082019150602081039050612a6b565b60006001826020036101000a039050801983511681855116818117865250508694505050505092915050565b81602001516001836000015151011115612ae057612adf826002846020015102612b7d565b5b815180516020818301018381536001820183525050505050565b612b02612c87565b836020015184600001515183011115612b3057612b2f846002612b29876020015186612b61565b02612b7d565b5b60006001836101000a0390508451805184818301018684198251161781528582018352505050849150509392505050565b600081831115612b7357829050612b77565b8190505b92915050565b606082600001519050612b908383612823565b612b9a8382612a0f565b50505050565b6040518060800160405280600073ffffffffffffffffffffffffffffffffffffffff16815260200160008152602001600081526020016000151581525090565b60405180608001604052806004905b6060815260200190600190039081612bef5790505090565b828054600181600116156101000203166002900490600052602060002090601f016020900481019282601f10612c4857805160ff1916838001178555612c76565b82800160010185558215612c76579182015b82811115612c75578251825591602001919060010190612c5a565b5b509050612c839190612ca1565b5090565b604051806040016040528060608152602001600081525090565b612cc391905b80821115612cbf576000816000905550600101612ca7565b5090565b9056fe50726f7661626c65207175657279207761732073656e742c207374616e64696e6720627920666f7220616e737765724e6f7420656e6f7567682065746820696e2074686520636f6e747261637420746f20706c61792074686973206d756368a265627a7a72315820e4a7f542c01363a181bbc7eca7185db8a6773f4c58724c683c782912fec40a7b64736f6c634300050c0032",
  "source": "pragma solidity 0.5.12;\r\nimport \"./Ownable.sol\";\r\nimport \"./provableAPI.sol\";\r\n\r\n\r\ncontract CoinToss is Ownable, usingProvable {\r\n    //function random() private view returns (uint256) {\r\n    //    return block.timestamp % 2;\r\n    //}\r\n\r\n    function testRandom() public returns (bytes32) {\r\n        bytes32 queryId = bytes32(keccak256((abi.encodePacked((msg.sender)))));\r\n        __callback(queryId, \"1\", bytes(\"test\"));\r\n        return queryId;\r\n    }\r\n\r\n    struct Game {\r\n      address player;\r\n      uint256 side;\r\n      uint betsize;\r\n      bool won;\r\n    }\r\n\r\n    event CoinTossed(string message);\r\n    event CoinDropped(bool won);\r\n    event GeneratedRandomNumber(uint256 randomNumber);\r\n\r\n    uint public balance;\r\n    mapping(address => uint) private balances;\r\n    mapping (address => Game) private games;\r\n    mapping (bytes32 => address) private randomCalls;\r\n\r\n    modifier costs(uint256 cost) {\r\n        require(msg.value >= cost);\r\n        _;\r\n    }\r\n\r\n    function addBalance() public payable onlyOwner {\r\n        balance += msg.value;\r\n    }\r\n\r\n    function toss(uint256 side) public payable costs(0.005 ether) {\r\n        require(\r\n            balance >= msg.value,\r\n            \"Not enough eth in the contract to play this much\"\r\n        );\r\n        \r\n        uint256 QUERY_EXECUTION_DELAY = 0;\r\n        uint256 GAS_FOR_CALLBACK = 200000;\r\n        bytes32 queryId = provable_newRandomDSQuery(QUERY_EXECUTION_DELAY, 1, GAS_FOR_CALLBACK);\r\n        //bytes32 queryId = testRandom();\r\n        randomCalls[queryId] = msg.sender;\r\n        \r\n        Game memory newGame;\r\n        newGame.player = msg.sender;\r\n        newGame.side = side;\r\n        newGame.betsize = msg.value;\r\n        games[msg.sender] = newGame;\r\n\r\n        emit CoinTossed(\"Provable query was sent, standing by for answer\");\r\n    }\r\n\r\n    function __callback(bytes32 _queryId, string memory _result/*, bytes memory _proof*/) public {\r\n        require(msg.sender == provable_cbAddress(), \"\");\r\n\r\n        uint256 tossed = uint256(keccak256(abi.encodePacked(_result))) % 2;\r\n\r\n        address player = randomCalls[_queryId];\r\n        Game memory game = games[player];\r\n        game.won = tossed == game.side;\r\n\r\n        if (game.won) {\r\n            balances[player] += (game.betsize * 2);\r\n            balance -= game.betsize;\r\n        } else {\r\n            balance += game.betsize;\r\n        }\r\n\r\n        emit CoinDropped(game.won);\r\n    }\r\n\r\n    function getFunds() public view returns (uint) {\r\n        address player = msg.sender;\r\n        return balances[player];\r\n    }\r\n\r\n    function withdrawFunds() public payable returns (uint) {\r\n        address player = msg.sender;\r\n        uint toTransfer = balances[player];\r\n        balances[player] = 0;\r\n        msg.sender.transfer(toTransfer);\r\n        return toTransfer;\r\n    }\r\n\r\n    function withdrawAll() public onlyOwner returns (uint256) {\r\n        uint toTransfer = balance;\r\n        balance = 0;\r\n        msg.sender.transfer(toTransfer);\r\n        return toTransfer;\r\n    }\r\n}\r\n",
  "sourcePath": "C:/Users/wietz/source/ethereum-course-advanced/CoinTossDapp/contract/contracts/CoinToss.sol",
  "compiler": {
    "name": "solc",
    "version": "0.5.12+commit.7709ece9.Emscripten.clang"
  },
  "schemaVersion": "3.0.16",
  "updatedAt": "2020-03-06T12:53:56.368Z",
  "devdoc": {
    "methods": {}
  },
  "userdoc": {
    "methods": {}
  }
}